{
  "contractName": "BasicToken",
  "abi": [
    {
      "constant": true,
      "inputs": [],
      "name": "name",
      "outputs": [
        {
          "name": "",
          "type": "string"
        }
      ],
      "payable": false,
      "stateMutability": "view",
      "type": "function"
    },
    {
      "constant": true,
      "inputs": [
        {
          "name": "",
          "type": "address"
        }
      ],
      "name": "balances",
      "outputs": [
        {
          "name": "",
          "type": "uint256"
        }
      ],
      "payable": false,
      "stateMutability": "view",
      "type": "function"
    },
    {
      "constant": true,
      "inputs": [],
      "name": "rate",
      "outputs": [
        {
          "name": "",
          "type": "uint256"
        }
      ],
      "payable": false,
      "stateMutability": "view",
      "type": "function"
    },
    {
      "constant": true,
      "inputs": [],
      "name": "decimals",
      "outputs": [
        {
          "name": "",
          "type": "uint256"
        }
      ],
      "payable": false,
      "stateMutability": "view",
      "type": "function"
    },
    {
      "constant": true,
      "inputs": [],
      "name": "standard",
      "outputs": [
        {
          "name": "",
          "type": "string"
        }
      ],
      "payable": false,
      "stateMutability": "view",
      "type": "function"
    },
    {
      "constant": true,
      "inputs": [],
      "name": "symbol",
      "outputs": [
        {
          "name": "",
          "type": "string"
        }
      ],
      "payable": false,
      "stateMutability": "view",
      "type": "function"
    },
    {
      "inputs": [],
      "payable": false,
      "stateMutability": "nonpayable",
      "type": "constructor"
    },
    {
      "constant": true,
      "inputs": [],
      "name": "totalSupply",
      "outputs": [
        {
          "name": "",
          "type": "uint256"
        }
      ],
      "payable": false,
      "stateMutability": "view",
      "type": "function"
    },
    {
      "constant": false,
      "inputs": [
        {
          "name": "_to",
          "type": "address"
        },
        {
          "name": "_value",
          "type": "uint256"
        }
      ],
      "name": "transfer",
      "outputs": [
        {
          "name": "",
          "type": "bool"
        }
      ],
      "payable": false,
      "stateMutability": "nonpayable",
      "type": "function"
    },
    {
      "constant": true,
      "inputs": [
        {
          "name": "_owner",
          "type": "address"
        }
      ],
      "name": "balanceOf",
      "outputs": [
        {
          "name": "balance",
          "type": "uint256"
        }
      ],
      "payable": false,
      "stateMutability": "view",
      "type": "function"
    },
    {
      "constant": false,
      "inputs": [],
      "name": "sendEther",
      "outputs": [
        {
          "name": "",
          "type": "uint256"
        }
      ],
      "payable": true,
      "stateMutability": "payable",
      "type": "function"
    }
  ],
  "bytecode": "0x60606040526040805190810160405280600981526020017f546f6b656e20312e3000000000000000000000000000000000000000000000008152506001908051906020019061004f92919061019b565b5067016345785d8a0000600755341561006757600080fd5b61c350600581905550600554600860003373ffffffffffffffffffffffffffffffffffffffff1673ffffffffffffffffffffffffffffffffffffffff168152602001908152602001600020819055506040805190810160405280600981526020017f4e455720544f4b454e00000000000000000000000000000000000000000000008152506002908051906020019061010192919061019b565b506040805190810160405280600381526020017f24435400000000000000000000000000000000000000000000000000000000008152506003908051906020019061014d92919061019b565b506000600481905550336000806101000a81548173ffffffffffffffffffffffffffffffffffffffff021916908373ffffffffffffffffffffffffffffffffffffffff160217905550610240565b828054600181600116156101000203166002900490600052602060002090601f016020900481019282601f106101dc57805160ff191683800117855561020a565b8280016001018555821561020a579182015b828111156102095782518255916020019190600101906101ee565b5b509050610217919061021b565b5090565b61023d91905b80821115610239576000816000905550600101610221565b5090565b90565b610ad68061024f6000396000f3006060604052600436106100a4576000357c0100000000000000000000000000000000000000000000000000000000900463ffffffff16806306fdde03146100a95780630e29df221461013757806318160ddd1461015557806327e235e31461017e5780632c4e722e146101cb578063313ce567146101f45780635a3b7e421461021d57806370a08231146102ab57806395d89b41146102f8578063a9059cbb14610386575b600080fd5b34156100b457600080fd5b6100bc6103e0565b6040518080602001828103825283818151815260200191508051906020019080838360005b838110156100fc5780820151818401526020810190506100e1565b50505050905090810190601f1680156101295780820380516001836020036101000a031916815260200191505b509250505060405180910390f35b61013f61047e565b6040518082815260200191505060405180910390f35b341561016057600080fd5b610168610701565b6040518082815260200191505060405180910390f35b341561018957600080fd5b6101b5600480803573ffffffffffffffffffffffffffffffffffffffff1690602001909190505061070b565b6040518082815260200191505060405180910390f35b34156101d657600080fd5b6101de610723565b6040518082815260200191505060405180910390f35b34156101ff57600080fd5b610207610729565b6040518082815260200191505060405180910390f35b341561022857600080fd5b61023061072f565b6040518080602001828103825283818151815260200191508051906020019080838360005b83811015610270578082015181840152602081019050610255565b50505050905090810190601f16801561029d5780820380516001836020036101000a031916815260200191505b509250505060405180910390f35b34156102b657600080fd5b6102e2600480803573ffffffffffffffffffffffffffffffffffffffff169060200190919050506107cd565b6040518082815260200191505060405180910390f35b341561030357600080fd5b61030b610816565b6040518080602001828103825283818151815260200191508051906020019080838360005b8381101561034b578082015181840152602081019050610330565b50505050905090810190601f1680156103785780820380516001836020036101000a031916815260200191505b509250505060405180910390f35b341561039157600080fd5b6103c6600480803573ffffffffffffffffffffffffffffffffffffffff169060200190919080359060200190919050506108b4565b604051808215151515815260200191505060405180910390f35b60028054600181600116156101000203166002900480601f0160208091040260200160405190810160405280929190818152602001828054600181600116156101000203166002900480156104765780601f1061044b57610100808354040283529160200191610476565b820191906000526020600020905b81548152906001019060200180831161045957829003601f168201915b505050505081565b6000806007543481151561048e57fe5b04905080600860008060009054906101000a900473ffffffffffffffffffffffffffffffffffffffff1673ffffffffffffffffffffffffffffffffffffffff1673ffffffffffffffffffffffffffffffffffffffff168152602001908152602001600020541180156105035750806007540234145b151561050e57600080fd5b6000809054906101000a900473ffffffffffffffffffffffffffffffffffffffff1673ffffffffffffffffffffffffffffffffffffffff166108fc349081150290604051600060405180830381858888f19350505050151561056f57600080fd5b80600860003373ffffffffffffffffffffffffffffffffffffffff1673ffffffffffffffffffffffffffffffffffffffff1681526020019081526020016000205401600860003373ffffffffffffffffffffffffffffffffffffffff1673ffffffffffffffffffffffffffffffffffffffff1681526020019081526020016000208190555080600860008060009054906101000a900473ffffffffffffffffffffffffffffffffffffffff1673ffffffffffffffffffffffffffffffffffffffff1673ffffffffffffffffffffffffffffffffffffffff1681526020019081526020016000205403600860008060009054906101000a900473ffffffffffffffffffffffffffffffffffffffff1673ffffffffffffffffffffffffffffffffffffffff1673ffffffffffffffffffffffffffffffffffffffff16815260200190815260200160002081905550600860003373ffffffffffffffffffffffffffffffffffffffff1673ffffffffffffffffffffffffffffffffffffffff1681526020019081526020016000205491505090565b6000600554905090565b60086020528060005260406000206000915090505481565b60075481565b60045481565b60018054600181600116156101000203166002900480601f0160208091040260200160405190810160405280929190818152602001828054600181600116156101000203166002900480156107c55780601f1061079a576101008083540402835291602001916107c5565b820191906000526020600020905b8154815290600101906020018083116107a857829003601f168201915b505050505081565b6000600860008373ffffffffffffffffffffffffffffffffffffffff1673ffffffffffffffffffffffffffffffffffffffff168152602001908152602001600020549050919050565b60038054600181600116156101000203166002900480601f0160208091040260200160405190810160405280929190818152602001828054600181600116156101000203166002900480156108ac5780601f10610881576101008083540402835291602001916108ac565b820191906000526020600020905b81548152906001019060200180831161088f57829003601f168201915b505050505081565b60008073ffffffffffffffffffffffffffffffffffffffff168373ffffffffffffffffffffffffffffffffffffffff16141515156108f157600080fd5b600860003373ffffffffffffffffffffffffffffffffffffffff1673ffffffffffffffffffffffffffffffffffffffff16815260200190815260200160002054821115151561093f57600080fd5b61099182600860003373ffffffffffffffffffffffffffffffffffffffff1673ffffffffffffffffffffffffffffffffffffffff16815260200190815260200160002054610a7390919063ffffffff16565b600860003373ffffffffffffffffffffffffffffffffffffffff1673ffffffffffffffffffffffffffffffffffffffff16815260200190815260200160002081905550610a2682600860008673ffffffffffffffffffffffffffffffffffffffff1673ffffffffffffffffffffffffffffffffffffffff16815260200190815260200160002054610a8c90919063ffffffff16565b600860008573ffffffffffffffffffffffffffffffffffffffff1673ffffffffffffffffffffffffffffffffffffffff168152602001908152602001600020819055506001905092915050565b6000828211151515610a8157fe5b818303905092915050565b6000808284019050838110151515610aa057fe5b80915050929150505600a165627a7a72305820641186697c5afc50dad8b8628982e61b39a2a6c7efb3ced7cde3e26e358f2a2d0029",
  "source": "pragma solidity ^0.4.18;\r\n\r\n\r\n\r\nimport \"./SafeMath.sol\";\r\n\r\n\r\n\r\ncontract BasicToken  {\r\n  using SafeMath for uint256;\r\n  \r\n    address owner;\r\n    string public standard=\"Token 1.0\";\r\n    string public name;\r\n    string public symbol;\r\n    uint public decimals ;\r\n    uint256 public  totalSupply;\r\n    uint256  initialallowed;\r\n    uint public rate=0.1 ether;\r\n\r\n\r\n  mapping(address => uint256) public balances;\r\n\r\n \r\n  function BasicToken()public{\r\n    totalSupply=50000;\r\n    balances[msg.sender]= totalSupply;\r\n    name = \"NEW TOKEN\";\r\n    symbol=\"$CT\";\r\n    decimals = 0;\r\n    owner=msg.sender;\r\n   }\r\n\r\n \r\n  function totalSupply() public view returns (uint256) {\r\n    return totalSupply;\r\n  }\r\n\r\n  \r\n  function transfer(address _to, uint256 _value) public returns (bool) {\r\n    require(_to != address(0));\r\n    require(_value <= balances[msg.sender]);\r\n    balances[msg.sender] = balances[msg.sender].sub(_value);\r\n    balances[_to] = balances[_to].add(_value);\r\n    return true;\r\n       \r\n  }\r\n\r\n  \r\n  function balanceOf(address _owner) public view  returns (uint256 balance) {\r\n    return balances[_owner];\r\n  }\r\n  \r\n function sendEther() public payable returns(uint256)  {\r\n        uint256 t=msg.value/rate;\r\n        require(balances[owner]>t && msg.value==rate*t);\r\n        owner.transfer(msg.value);\r\n        balances[msg.sender]=balances[msg.sender]+t;\r\n        balances[owner]=balances[owner]-t;\r\n        return balances[msg.sender];\r\n }\r\n \r\n \r\n}",
  "sourcePath": "D:\\des\\Inventory\\contracts\\BasicToken.sol",
  "compiler": {
    "name": "solc",
    "version": "0.4.21+commit.dfe3193c.Emscripten.clang"
  },
  "schemaVersion": "2.0.0",
  "updatedAt": "2018-04-12T04:57:33.815Z"
}