{
  "contractName": "Inventory",
  "abi": [
    {
      "constant": true,
      "inputs": [
        {
          "name": "",
          "type": "uint256"
        }
      ],
      "name": "ORDER",
      "outputs": [
        {
          "name": "id2",
          "type": "uint256"
        },
        {
          "name": "id",
          "type": "uint256"
        },
        {
          "name": "cid",
          "type": "address"
        },
        {
          "name": "name",
          "type": "string"
        },
        {
          "name": "brand",
          "type": "string"
        },
        {
          "name": "quantity",
          "type": "uint256"
        },
        {
          "name": "price",
          "type": "uint256"
        },
        {
          "name": "tprice",
          "type": "uint256"
        }
      ],
      "payable": false,
      "stateMutability": "view",
      "type": "function"
    },
    {
      "constant": true,
      "inputs": [],
      "name": "name",
      "outputs": [
        {
          "name": "",
          "type": "string"
        }
      ],
      "payable": false,
      "stateMutability": "view",
      "type": "function"
    },
    {
      "constant": false,
      "inputs": [],
      "name": "sendEther",
      "outputs": [
        {
          "name": "",
          "type": "uint256"
        }
      ],
      "payable": true,
      "stateMutability": "payable",
      "type": "function"
    },
    {
      "constant": true,
      "inputs": [],
      "name": "totalSupply",
      "outputs": [
        {
          "name": "",
          "type": "uint256"
        }
      ],
      "payable": false,
      "stateMutability": "view",
      "type": "function"
    },
    {
      "constant": true,
      "inputs": [
        {
          "name": "",
          "type": "uint256"
        }
      ],
      "name": "PURCHASE",
      "outputs": [
        {
          "name": "ipid",
          "type": "uint256"
        },
        {
          "name": "ipname",
          "type": "string"
        },
        {
          "name": "brands",
          "type": "string"
        },
        {
          "name": "iquantity",
          "type": "uint256"
        },
        {
          "name": "iprice",
          "type": "uint256"
        },
        {
          "name": "itprice",
          "type": "uint256"
        }
      ],
      "payable": false,
      "stateMutability": "view",
      "type": "function"
    },
    {
      "constant": true,
      "inputs": [
        {
          "name": "",
          "type": "address"
        }
      ],
      "name": "balances",
      "outputs": [
        {
          "name": "",
          "type": "uint256"
        }
      ],
      "payable": false,
      "stateMutability": "view",
      "type": "function"
    },
    {
      "constant": true,
      "inputs": [],
      "name": "customer",
      "outputs": [
        {
          "name": "",
          "type": "address"
        }
      ],
      "payable": false,
      "stateMutability": "view",
      "type": "function"
    },
    {
      "constant": true,
      "inputs": [
        {
          "name": "",
          "type": "uint256"
        }
      ],
      "name": "PROD",
      "outputs": [
        {
          "name": "pid",
          "type": "uint256"
        },
        {
          "name": "pname",
          "type": "string"
        },
        {
          "name": "pbrand",
          "type": "string"
        },
        {
          "name": "pquantity",
          "type": "uint256"
        },
        {
          "name": "pprice",
          "type": "uint256"
        }
      ],
      "payable": false,
      "stateMutability": "view",
      "type": "function"
    },
    {
      "constant": true,
      "inputs": [],
      "name": "rate",
      "outputs": [
        {
          "name": "",
          "type": "uint256"
        }
      ],
      "payable": false,
      "stateMutability": "view",
      "type": "function"
    },
    {
      "constant": true,
      "inputs": [],
      "name": "decimals",
      "outputs": [
        {
          "name": "",
          "type": "uint256"
        }
      ],
      "payable": false,
      "stateMutability": "view",
      "type": "function"
    },
    {
      "constant": true,
      "inputs": [],
      "name": "standard",
      "outputs": [
        {
          "name": "",
          "type": "string"
        }
      ],
      "payable": false,
      "stateMutability": "view",
      "type": "function"
    },
    {
      "constant": true,
      "inputs": [
        {
          "name": "_owner",
          "type": "address"
        }
      ],
      "name": "balanceOf",
      "outputs": [
        {
          "name": "balance",
          "type": "uint256"
        }
      ],
      "payable": false,
      "stateMutability": "view",
      "type": "function"
    },
    {
      "constant": true,
      "inputs": [
        {
          "name": "",
          "type": "uint256"
        }
      ],
      "name": "o_id",
      "outputs": [
        {
          "name": "",
          "type": "uint256"
        }
      ],
      "payable": false,
      "stateMutability": "view",
      "type": "function"
    },
    {
      "constant": true,
      "inputs": [
        {
          "name": "",
          "type": "address"
        }
      ],
      "name": "CUST",
      "outputs": [
        {
          "name": "",
          "type": "address"
        }
      ],
      "payable": false,
      "stateMutability": "view",
      "type": "function"
    },
    {
      "constant": true,
      "inputs": [
        {
          "name": "",
          "type": "uint256"
        }
      ],
      "name": "pur_id",
      "outputs": [
        {
          "name": "",
          "type": "uint256"
        }
      ],
      "payable": false,
      "stateMutability": "view",
      "type": "function"
    },
    {
      "constant": true,
      "inputs": [],
      "name": "owner",
      "outputs": [
        {
          "name": "",
          "type": "address"
        }
      ],
      "payable": false,
      "stateMutability": "view",
      "type": "function"
    },
    {
      "constant": true,
      "inputs": [],
      "name": "symbol",
      "outputs": [
        {
          "name": "",
          "type": "string"
        }
      ],
      "payable": false,
      "stateMutability": "view",
      "type": "function"
    },
    {
      "constant": false,
      "inputs": [
        {
          "name": "_to",
          "type": "address"
        },
        {
          "name": "_value",
          "type": "uint256"
        }
      ],
      "name": "transfer",
      "outputs": [
        {
          "name": "",
          "type": "bool"
        }
      ],
      "payable": false,
      "stateMutability": "nonpayable",
      "type": "function"
    },
    {
      "constant": true,
      "inputs": [
        {
          "name": "",
          "type": "uint256"
        }
      ],
      "name": "p_id",
      "outputs": [
        {
          "name": "",
          "type": "uint256"
        }
      ],
      "payable": false,
      "stateMutability": "view",
      "type": "function"
    },
    {
      "constant": true,
      "inputs": [],
      "name": "productCount",
      "outputs": [
        {
          "name": "",
          "type": "uint256"
        }
      ],
      "payable": false,
      "stateMutability": "view",
      "type": "function"
    },
    {
      "constant": false,
      "inputs": [
        {
          "name": "id",
          "type": "address"
        }
      ],
      "name": "cust",
      "outputs": [
        {
          "name": "",
          "type": "address"
        }
      ],
      "payable": false,
      "stateMutability": "nonpayable",
      "type": "function"
    },
    {
      "constant": false,
      "inputs": [
        {
          "name": "id",
          "type": "uint256"
        },
        {
          "name": "name",
          "type": "string"
        },
        {
          "name": "brand",
          "type": "string"
        },
        {
          "name": "quantity",
          "type": "uint256"
        },
        {
          "name": "price",
          "type": "uint256"
        }
      ],
      "name": "p_details",
      "outputs": [],
      "payable": false,
      "stateMutability": "nonpayable",
      "type": "function"
    },
    {
      "constant": true,
      "inputs": [],
      "name": "getProductsCount",
      "outputs": [
        {
          "name": "",
          "type": "uint256"
        }
      ],
      "payable": false,
      "stateMutability": "view",
      "type": "function"
    },
    {
      "constant": true,
      "inputs": [
        {
          "name": "_id",
          "type": "uint256"
        }
      ],
      "name": "getProductId",
      "outputs": [
        {
          "name": "",
          "type": "uint256"
        }
      ],
      "payable": false,
      "stateMutability": "view",
      "type": "function"
    },
    {
      "constant": false,
      "inputs": [
        {
          "name": "id2",
          "type": "uint256"
        },
        {
          "name": "id",
          "type": "uint256"
        },
        {
          "name": "id1",
          "type": "address"
        },
        {
          "name": "pquantity",
          "type": "uint256"
        }
      ],
      "name": "order",
      "outputs": [],
      "payable": false,
      "stateMutability": "nonpayable",
      "type": "function"
    },
    {
      "constant": true,
      "inputs": [],
      "name": "getOrderCount",
      "outputs": [
        {
          "name": "",
          "type": "uint256"
        }
      ],
      "payable": false,
      "stateMutability": "view",
      "type": "function"
    },
    {
      "constant": false,
      "inputs": [
        {
          "name": "id",
          "type": "uint256"
        },
        {
          "name": "p_name",
          "type": "string"
        },
        {
          "name": "brands",
          "type": "string"
        },
        {
          "name": "_quantity",
          "type": "uint256"
        },
        {
          "name": "price",
          "type": "uint256"
        }
      ],
      "name": "purchase_order",
      "outputs": [
        {
          "name": "",
          "type": "uint256"
        },
        {
          "name": "",
          "type": "string"
        },
        {
          "name": "",
          "type": "string"
        },
        {
          "name": "",
          "type": "uint256"
        },
        {
          "name": "",
          "type": "uint256"
        }
      ],
      "payable": false,
      "stateMutability": "nonpayable",
      "type": "function"
    },
    {
      "constant": true,
      "inputs": [],
      "name": "purchaseOrder",
      "outputs": [
        {
          "name": "",
          "type": "uint256"
        }
      ],
      "payable": false,
      "stateMutability": "view",
      "type": "function"
    },
    {
      "constant": true,
      "inputs": [
        {
          "name": "id",
          "type": "uint256"
        }
      ],
      "name": "viewproduct",
      "outputs": [
        {
          "name": "",
          "type": "uint256"
        },
        {
          "name": "",
          "type": "string"
        },
        {
          "name": "",
          "type": "string"
        },
        {
          "name": "",
          "type": "uint256"
        },
        {
          "name": "",
          "type": "uint256"
        }
      ],
      "payable": false,
      "stateMutability": "view",
      "type": "function"
    },
    {
      "constant": true,
      "inputs": [
        {
          "name": "id2",
          "type": "uint256"
        }
      ],
      "name": "vieworder",
      "outputs": [
        {
          "name": "",
          "type": "uint256"
        },
        {
          "name": "",
          "type": "address"
        },
        {
          "name": "",
          "type": "string"
        },
        {
          "name": "",
          "type": "string"
        },
        {
          "name": "",
          "type": "uint256"
        },
        {
          "name": "",
          "type": "uint256"
        },
        {
          "name": "",
          "type": "uint256"
        }
      ],
      "payable": false,
      "stateMutability": "view",
      "type": "function"
    },
    {
      "constant": true,
      "inputs": [
        {
          "name": "id",
          "type": "uint256"
        }
      ],
      "name": "viewpurchase",
      "outputs": [
        {
          "name": "",
          "type": "uint256"
        },
        {
          "name": "",
          "type": "string"
        },
        {
          "name": "",
          "type": "string"
        },
        {
          "name": "",
          "type": "uint256"
        },
        {
          "name": "",
          "type": "uint256"
        }
      ],
      "payable": false,
      "stateMutability": "view",
      "type": "function"
    }
  ],
  "bytecode": "0x60606040526040805190810160405280600981526020017f546f6b656e20312e3000000000000000000000000000000000000000000000008152506002908051906020019062000051929190620001dd565b5067016345785d8a00006008556000600b55336000806101000a81548173ffffffffffffffffffffffffffffffffffffffff021916908373ffffffffffffffffffffffffffffffffffffffff16021790555061c350600681905550600654600960003373ffffffffffffffffffffffffffffffffffffffff1673ffffffffffffffffffffffffffffffffffffffff168152602001908152602001600020819055506040805190810160405280600981526020017f4e455720544f4b454e0000000000000000000000000000000000000000000000815250600390805190602001906200013f929190620001dd565b506040805190810160405280600381526020017f2443540000000000000000000000000000000000000000000000000000000000815250600490805190602001906200018d929190620001dd565b50600060058190555033600160006101000a81548173ffffffffffffffffffffffffffffffffffffffff021916908373ffffffffffffffffffffffffffffffffffffffff1602179055506200028c565b828054600181600116156101000203166002900490600052602060002090601f016020900481019282601f106200022057805160ff191683800117855562000251565b8280016001018555821562000251579182015b828111156200025057825182559160200191906001019062000233565b5b50905062000260919062000264565b5090565b6200028991905b80821115620002855760008160009055506001016200026b565b5090565b90565b612f63806200029c6000396000f30060606040526004361061018b576000357c0100000000000000000000000000000000000000000000000000000000900463ffffffff16806303c894921461019057806306fdde03146102ee5780630e29df221461037c57806315f2cc851461039a57806318160ddd146103c35780631d752528146103ec57806327e235e3146105105780632804b2c01461055d5780632ad0eaf4146105b25780632c4e722e146106cf578063313ce567146106f8578063481009d9146107215780635786fd40146108785780635a3b7e42146108a15780635ae637cc1461092f5780635c63bb01146109ea57806370a0823114610b9f578063721a13e914610bec5780637f230f0614610d0957806387744c3714610d405780638af07c1014610db95780638d0a5fbb14610df05780638da5cb5b14610e195780639212f8ed14610e6e57806395d89b4114610ee75780639f77a60514610f75578063a9059cbb14610fac578063aece059014611006578063d39e8e0f1461103d578063d6409cef14611091578063e0f6ef87146111ae575b600080fd5b341561019b57600080fd5b6101b160048080359060200190919050506111d7565b604051808981526020018881526020018773ffffffffffffffffffffffffffffffffffffffff1673ffffffffffffffffffffffffffffffffffffffff1681526020018060200180602001868152602001858152602001848152602001838103835288818151815260200191508051906020019080838360005b8381101561024557808201518184015260208101905061022a565b50505050905090810190601f1680156102725780820380516001836020036101000a031916815260200191505b50838103825287818151815260200191508051906020019080838360005b838110156102ab578082015181840152602081019050610290565b50505050905090810190601f1680156102d85780820380516001836020036101000a031916815260200191505b509a505050505050505050505060405180910390f35b34156102f957600080fd5b61030161136f565b6040518080602001828103825283818151815260200191508051906020019080838360005b83811015610341578082015181840152602081019050610326565b50505050905090810190601f16801561036e5780820380516001836020036101000a031916815260200191505b509250505060405180910390f35b61038461140d565b6040518082815260200191505060405180910390f35b34156103a557600080fd5b6103ad611694565b6040518082815260200191505060405180910390f35b34156103ce57600080fd5b6103d66116a1565b6040518082815260200191505060405180910390f35b34156103f757600080fd5b61040d60048080359060200190919050506116ab565b604051808781526020018060200180602001868152602001858152602001848152602001838103835288818151815260200191508051906020019080838360005b8381101561046957808201518184015260208101905061044e565b50505050905090810190601f1680156104965780820380516001836020036101000a031916815260200191505b50838103825287818151815260200191508051906020019080838360005b838110156104cf5780820151818401526020810190506104b4565b50505050905090810190601f1680156104fc5780820380516001836020036101000a031916815260200191505b509850505050505050505060405180910390f35b341561051b57600080fd5b610547600480803573ffffffffffffffffffffffffffffffffffffffff16906020019091905050611817565b6040518082815260200191505060405180910390f35b341561056857600080fd5b61057061182f565b604051808273ffffffffffffffffffffffffffffffffffffffff1673ffffffffffffffffffffffffffffffffffffffff16815260200191505060405180910390f35b34156105bd57600080fd5b6105d36004808035906020019091905050611855565b604051808681526020018060200180602001858152602001848152602001838103835287818151815260200191508051906020019080838360005b8381101561062957808201518184015260208101905061060e565b50505050905090810190601f1680156106565780820380516001836020036101000a031916815260200191505b50838103825286818151815260200191508051906020019080838360005b8381101561068f578082015181840152602081019050610674565b50505050905090810190601f1680156106bc5780820380516001836020036101000a031916815260200191505b5097505050505050505060405180910390f35b34156106da57600080fd5b6106e26119bb565b6040518082815260200191505060405180910390f35b341561070357600080fd5b61070b6119c1565b6040518082815260200191505060405180910390f35b341561072c57600080fd5b61074260048080359060200190919050506119c7565b604051808881526020018773ffffffffffffffffffffffffffffffffffffffff1673ffffffffffffffffffffffffffffffffffffffff1681526020018060200180602001868152602001858152602001848152602001838103835288818151815260200191508051906020019080838360005b838110156107d05780820151818401526020810190506107b5565b50505050905090810190601f1680156107fd5780820380516001836020036101000a031916815260200191505b50838103825287818151815260200191508051906020019080838360005b8381101561083657808201518184015260208101905061081b565b50505050905090810190601f1680156108635780820380516001836020036101000a031916815260200191505b50995050505050505050505060405180910390f35b341561088357600080fd5b61088b611bef565b6040518082815260200191505060405180910390f35b34156108ac57600080fd5b6108b4611bfc565b6040518080602001828103825283818151815260200191508051906020019080838360005b838110156108f45780820151818401526020810190506108d9565b50505050905090810190601f1680156109215780820380516001836020036101000a031916815260200191505b509250505060405180910390f35b341561093a57600080fd5b6109e8600480803590602001909190803590602001908201803590602001908080601f0160208091040260200160405190810160405280939291908181526020018383808284378201915050505050509190803590602001908201803590602001908080601f01602080910402602001604051908101604052809392919081815260200183838082843782019150505050505091908035906020019091908035906020019091905050611c9a565b005b34156109f557600080fd5b610aa3600480803590602001909190803590602001908201803590602001908080601f0160208091040260200160405190810160405280939291908181526020018383808284378201915050505050509190803590602001908201803590602001908080601f01602080910402602001604051908101604052809392919081815260200183838082843782019150505050505091908035906020019091908035906020019091905050611e03565b604051808681526020018060200180602001858152602001848152602001838103835287818151815260200191508051906020019080838360005b83811015610af9578082015181840152602081019050610ade565b50505050905090810190601f168015610b265780820380516001836020036101000a031916815260200191505b50838103825286818151815260200191508051906020019080838360005b83811015610b5f578082015181840152602081019050610b44565b50505050905090810190601f168015610b8c5780820380516001836020036101000a031916815260200191505b5097505050505050505060405180910390f35b3415610baa57600080fd5b610bd6600480803573ffffffffffffffffffffffffffffffffffffffff169060200190919050506121a5565b6040518082815260200191505060405180910390f35b3415610bf757600080fd5b610c0d60048080359060200190919050506121ee565b604051808681526020018060200180602001858152602001848152602001838103835287818151815260200191508051906020019080838360005b83811015610c63578082015181840152602081019050610c48565b50505050905090810190601f168015610c905780820380516001836020036101000a031916815260200191505b50838103825286818151815260200191508051906020019080838360005b83811015610cc9578082015181840152602081019050610cae565b50505050905090810190601f168015610cf65780820380516001836020036101000a031916815260200191505b5097505050505050505060405180910390f35b3415610d1457600080fd5b610d2a60048080359060200190919050506123bf565b6040518082815260200191505060405180910390f35b3415610d4b57600080fd5b610d77600480803573ffffffffffffffffffffffffffffffffffffffff169060200190919050506123e3565b604051808273ffffffffffffffffffffffffffffffffffffffff1673ffffffffffffffffffffffffffffffffffffffff16815260200191505060405180910390f35b3415610dc457600080fd5b610dda6004808035906020019091905050612416565b6040518082815260200191505060405180910390f35b3415610dfb57600080fd5b610e0361243a565b6040518082815260200191505060405180910390f35b3415610e2457600080fd5b610e2c612447565b604051808273ffffffffffffffffffffffffffffffffffffffff1673ffffffffffffffffffffffffffffffffffffffff16815260200191505060405180910390f35b3415610e7957600080fd5b610ea5600480803573ffffffffffffffffffffffffffffffffffffffff1690602001909190505061246c565b604051808273ffffffffffffffffffffffffffffffffffffffff1673ffffffffffffffffffffffffffffffffffffffff16815260200191505060405180910390f35b3415610ef257600080fd5b610efa612553565b6040518080602001828103825283818151815260200191508051906020019080838360005b83811015610f3a578082015181840152602081019050610f1f565b50505050905090810190601f168015610f675780820380516001836020036101000a031916815260200191505b509250505060405180910390f35b3415610f8057600080fd5b610f9660048080359060200190919050506125f1565b6040518082815260200191505060405180910390f35b3415610fb757600080fd5b610fec600480803573ffffffffffffffffffffffffffffffffffffffff16906020019091908035906020019091905050612615565b604051808215151515815260200191505060405180910390f35b341561101157600080fd5b61102760048080359060200190919050506127d4565b6040518082815260200191505060405180910390f35b341561104857600080fd5b61108f600480803590602001909190803590602001909190803573ffffffffffffffffffffffffffffffffffffffff169060200190919080359060200190919050506127f8565b005b341561109c57600080fd5b6110b26004808035906020019091905050612bbd565b604051808681526020018060200180602001858152602001848152602001838103835287818151815260200191508051906020019080838360005b838110156111085780820151818401526020810190506110ed565b50505050905090810190601f1680156111355780820380516001836020036101000a031916815260200191505b50838103825286818151815260200191508051906020019080838360005b8381101561116e578082015181840152602081019050611153565b50505050905090810190601f16801561119b5780820380516001836020036101000a031916815260200191505b5097505050505050505060405180910390f35b34156111b957600080fd5b6111c1612d8e565b6040518082815260200191505060405180910390f35b60116020528060005260406000206000915090508060000154908060010154908060020160009054906101000a900473ffffffffffffffffffffffffffffffffffffffff1690806003018054600181600116156101000203166002900480601f0160208091040260200160405190810160405280929190818152602001828054600181600116156101000203166002900480156112b55780601f1061128a576101008083540402835291602001916112b5565b820191906000526020600020905b81548152906001019060200180831161129857829003601f168201915b505050505090806004018054600181600116156101000203166002900480601f0160208091040260200160405190810160405280929190818152602001828054600181600116156101000203166002900480156113535780601f1061132857610100808354040283529160200191611353565b820191906000526020600020905b81548152906001019060200180831161133657829003601f168201915b5050505050908060050154908060060154908060070154905088565b60038054600181600116156101000203166002900480601f0160208091040260200160405190810160405280929190818152602001828054600181600116156101000203166002900480156114055780601f106113da57610100808354040283529160200191611405565b820191906000526020600020905b8154815290600101906020018083116113e857829003601f168201915b505050505081565b6000806008543481151561141d57fe5b0490508060096000600160009054906101000a900473ffffffffffffffffffffffffffffffffffffffff1673ffffffffffffffffffffffffffffffffffffffff1673ffffffffffffffffffffffffffffffffffffffff168152602001908152602001600020541180156114935750806008540234145b151561149e57600080fd5b600160009054906101000a900473ffffffffffffffffffffffffffffffffffffffff1673ffffffffffffffffffffffffffffffffffffffff166108fc349081150290604051600060405180830381858888f19350505050151561150057600080fd5b80600960003373ffffffffffffffffffffffffffffffffffffffff1673ffffffffffffffffffffffffffffffffffffffff1681526020019081526020016000205401600960003373ffffffffffffffffffffffffffffffffffffffff1673ffffffffffffffffffffffffffffffffffffffff168152602001908152602001600020819055508060096000600160009054906101000a900473ffffffffffffffffffffffffffffffffffffffff1673ffffffffffffffffffffffffffffffffffffffff1673ffffffffffffffffffffffffffffffffffffffff168152602001908152602001600020540360096000600160009054906101000a900473ffffffffffffffffffffffffffffffffffffffff1673ffffffffffffffffffffffffffffffffffffffff1673ffffffffffffffffffffffffffffffffffffffff16815260200190815260200160002081905550600960003373ffffffffffffffffffffffffffffffffffffffff1673ffffffffffffffffffffffffffffffffffffffff1681526020019081526020016000205491505090565b6000600e80549050905090565b6000600654905090565b6012602052806000526040600020600091509050806000015490806001018054600181600116156101000203166002900480601f01602080910402602001604051908101604052809291908181526020018280546001816001161561010002031660029004801561175d5780601f106117325761010080835404028352916020019161175d565b820191906000526020600020905b81548152906001019060200180831161174057829003601f168201915b505050505090806002018054600181600116156101000203166002900480601f0160208091040260200160405190810160405280929190818152602001828054600181600116156101000203166002900480156117fb5780601f106117d0576101008083540402835291602001916117fb565b820191906000526020600020905b8154815290600101906020018083116117de57829003601f168201915b5050505050908060030154908060040154908060050154905086565b60096020528060005260406000206000915090505481565b600a60009054906101000a900473ffffffffffffffffffffffffffffffffffffffff1681565b6010602052806000526040600020600091509050806000015490806001018054600181600116156101000203166002900480601f0160208091040260200160405190810160405280929190818152602001828054600181600116156101000203166002900480156119075780601f106118dc57610100808354040283529160200191611907565b820191906000526020600020905b8154815290600101906020018083116118ea57829003601f168201915b505050505090806002018054600181600116156101000203166002900480601f0160208091040260200160405190810160405280929190818152602001828054600181600116156101000203166002900480156119a55780601f1061197a576101008083540402835291602001916119a5565b820191906000526020600020905b81548152906001019060200180831161198857829003601f168201915b5050505050908060030154908060040154905085565b60085481565b60055481565b6000806119d2612dcb565b6119da612dcb565b60008060006011600089815260200190815260200160002060000154601160008a815260200190815260200160002060020160009054906101000a900473ffffffffffffffffffffffffffffffffffffffff16601160008b8152602001908152602001600020600301601160008c8152602001908152602001600020600401601160008d815260200190815260200160002060050154601160008e815260200190815260200160002060060154601160008f815260200190815260200160002060070154848054600181600116156101000203166002900480601f016020809104026020016040519081016040528092919081815260200182805460018160011615610100020316600290048015611b335780601f10611b0857610100808354040283529160200191611b33565b820191906000526020600020905b815481529060010190602001808311611b1657829003601f168201915b50505050509450838054600181600116156101000203166002900480601f016020809104026020016040519081016040528092919081815260200182805460018160011615610100020316600290048015611bcf5780601f10611ba457610100808354040283529160200191611bcf565b820191906000526020600020905b815481529060010190602001808311611bb257829003601f168201915b505050505093509650965096509650965096509650919395979092949650565b6000600c80549050905090565b60028054600181600116156101000203166002900480601f016020809104026020016040519081016040528092919081815260200182805460018160011615610100020316600290048015611c925780601f10611c6757610100808354040283529160200191611c92565b820191906000526020600020905b815481529060010190602001808311611c7557829003601f168201915b505050505081565b3373ffffffffffffffffffffffffffffffffffffffff166000809054906101000a900473ffffffffffffffffffffffffffffffffffffffff1673ffffffffffffffffffffffffffffffffffffffff16141515611cf557600080fd5b84601060008781526020019081526020016000206000015414151515611d1a57600080fd5b84601060008781526020019081526020016000206000018190555083601060008781526020019081526020016000206001019080519060200190611d5f929190612ddf565b5082601060008781526020019081526020016000206002019080519060200190611d8a929190612ddf565b50816010600087815260200190815260200160002060030181905550806010600087815260200190815260200160002060040181905550600b60008154809291906001019190505550600c8054806001018281611de79190612e5f565b9160005260206000209001600087909190915055505050505050565b6000611e0d612dcb565b611e15612dcb565b6000803373ffffffffffffffffffffffffffffffffffffffff166000809054906101000a900473ffffffffffffffffffffffffffffffffffffffff1673ffffffffffffffffffffffffffffffffffffffff16141515611e7357600080fd5b89601260008c81526020019081526020016000206000018190555088601260008c81526020019081526020016000206001019080519060200190611eb8929190612ddf565b5087601260008c81526020019081526020016000206002019080519060200190611ee3929190612ddf565b5086601260008c81526020019081526020016000206003018190555085601260008c815260200190815260200160002060040181905550858702601260008c815260200190815260200160002060050181905550601260008b81526020019081526020016000206005015460096000600160009054906101000a900473ffffffffffffffffffffffffffffffffffffffff1673ffffffffffffffffffffffffffffffffffffffff1673ffffffffffffffffffffffffffffffffffffffff16815260200190815260200160002060008282540392505081905550600e8054806001018281611fd09190612e5f565b916000526020600020900160008c90919091505550601260008b815260200190815260200160002060000154601260008c8152602001908152602001600020600101601260008d8152602001908152602001600020600201601260008e815260200190815260200160002060030154601260008f815260200190815260200160002060040154838054600181600116156101000203166002900480601f0160208091040260200160405190810160405280929190818152602001828054600181600116156101000203166002900480156120eb5780601f106120c0576101008083540402835291602001916120eb565b820191906000526020600020905b8154815290600101906020018083116120ce57829003601f168201915b50505050509350828054600181600116156101000203166002900480601f0160208091040260200160405190810160405280929190818152602001828054600181600116156101000203166002900480156121875780601f1061215c57610100808354040283529160200191612187565b820191906000526020600020905b81548152906001019060200180831161216a57829003601f168201915b50505050509250945094509450945094509550955095509550959050565b6000600960008373ffffffffffffffffffffffffffffffffffffffff1673ffffffffffffffffffffffffffffffffffffffff168152602001908152602001600020549050919050565b60006121f8612dcb565b612200612dcb565b60008060106000878152602001908152602001600020600001546010600088815260200190815260200160002060010160106000898152602001908152602001600020600201601060008a815260200190815260200160002060030154601060008b815260200190815260200160002060040154838054600181600116156101000203166002900480601f0160208091040260200160405190810160405280929190818152602001828054600181600116156101000203166002900480156123095780601f106122de57610100808354040283529160200191612309565b820191906000526020600020905b8154815290600101906020018083116122ec57829003601f168201915b50505050509350828054600181600116156101000203166002900480601f0160208091040260200160405190810160405280929190818152602001828054600181600116156101000203166002900480156123a55780601f1061237a576101008083540402835291602001916123a5565b820191906000526020600020905b81548152906001019060200180831161238857829003601f168201915b505050505092509450945094509450945091939590929450565b600d818154811015156123ce57fe5b90600052602060002090016000915090505481565b600f6020528060005260406000206000915054906101000a900473ffffffffffffffffffffffffffffffffffffffff1681565b600e8181548110151561242557fe5b90600052602060002090016000915090505481565b6000600d80549050905090565b6000809054906101000a900473ffffffffffffffffffffffffffffffffffffffff1681565b600081600f60008473ffffffffffffffffffffffffffffffffffffffff1673ffffffffffffffffffffffffffffffffffffffff16815260200190815260200160002060006101000a81548173ffffffffffffffffffffffffffffffffffffffff021916908373ffffffffffffffffffffffffffffffffffffffff160217905550600f60008373ffffffffffffffffffffffffffffffffffffffff1673ffffffffffffffffffffffffffffffffffffffff16815260200190815260200160002060009054906101000a900473ffffffffffffffffffffffffffffffffffffffff169050919050565b60048054600181600116156101000203166002900480601f0160208091040260200160405190810160405280929190818152602001828054600181600116156101000203166002900480156125e95780601f106125be576101008083540402835291602001916125e9565b820191906000526020600020905b8154815290600101906020018083116125cc57829003601f168201915b505050505081565b6000600c8281548110151561260257fe5b9060005260206000209001549050919050565b60008073ffffffffffffffffffffffffffffffffffffffff168373ffffffffffffffffffffffffffffffffffffffff161415151561265257600080fd5b600960003373ffffffffffffffffffffffffffffffffffffffff1673ffffffffffffffffffffffffffffffffffffffff1681526020019081526020016000205482111515156126a057600080fd5b6126f282600960003373ffffffffffffffffffffffffffffffffffffffff1673ffffffffffffffffffffffffffffffffffffffff16815260200190815260200160002054612d9490919063ffffffff16565b600960003373ffffffffffffffffffffffffffffffffffffffff1673ffffffffffffffffffffffffffffffffffffffff1681526020019081526020016000208190555061278782600960008673ffffffffffffffffffffffffffffffffffffffff1673ffffffffffffffffffffffffffffffffffffffff16815260200190815260200160002054612dad90919063ffffffff16565b600960008573ffffffffffffffffffffffffffffffffffffffff1673ffffffffffffffffffffffffffffffffffffffff168152602001908152602001600020819055506001905092915050565b600c818154811015156127e357fe5b90600052602060002090016000915090505481565b601260008481526020019081526020016000206000015483148015612833575060126000848152602001908152602001600020600301548111155b151561283e57600080fd5b600f60008373ffffffffffffffffffffffffffffffffffffffff1673ffffffffffffffffffffffffffffffffffffffff16815260200190815260200160002060009054906101000a900473ffffffffffffffffffffffffffffffffffffffff1673ffffffffffffffffffffffffffffffffffffffff168273ffffffffffffffffffffffffffffffffffffffff161415156128d757600080fd5b836011600086815260200190815260200160002060000181905550816011600086815260200190815260200160002060020160006101000a81548173ffffffffffffffffffffffffffffffffffffffff021916908373ffffffffffffffffffffffffffffffffffffffff160217905550826011600086815260200190815260200160002060010181905550601260008481526020019081526020016000206001016011600086815260200190815260200160002060030190805460018160011615610100020316600290046129ad929190612e8b565b50601260008481526020019081526020016000206002016011600086815260200190815260200160002060040190805460018160011615610100020316600290046129f9929190612e8b565b50806011600086815260200190815260200160002060050181905550601260008481526020019081526020016000206004015481026011600086815260200190815260200160002060060181905550601160008581526020019081526020016000206006015460116000868152602001908152602001600020600701600082825401925050819055508060126000858152602001908152602001600020600301600082825403925050819055506011600085815260200190815260200160002060070154600960003373ffffffffffffffffffffffffffffffffffffffff1673ffffffffffffffffffffffffffffffffffffffff16815260200190815260200160002060008282540392505081905550601160008581526020019081526020016000206007015460096000600160009054906101000a900473ffffffffffffffffffffffffffffffffffffffff1673ffffffffffffffffffffffffffffffffffffffff1673ffffffffffffffffffffffffffffffffffffffff16815260200190815260200160002060008282540192505081905550600d8054806001018281612ba29190612e5f565b91600052602060002090016000869091909150555050505050565b6000612bc7612dcb565b612bcf612dcb565b60008060126000878152602001908152602001600020600001546012600088815260200190815260200160002060010160126000898152602001908152602001600020600201601260008a815260200190815260200160002060030154601260008b815260200190815260200160002060040154838054600181600116156101000203166002900480601f016020809104026020016040519081016040528092919081815260200182805460018160011615610100020316600290048015612cd85780601f10612cad57610100808354040283529160200191612cd8565b820191906000526020600020905b815481529060010190602001808311612cbb57829003601f168201915b50505050509350828054600181600116156101000203166002900480601f016020809104026020016040519081016040528092919081815260200182805460018160011615610100020316600290048015612d745780601f10612d4957610100808354040283529160200191612d74565b820191906000526020600020905b815481529060010190602001808311612d5757829003601f168201915b505050505092509450945094509450945091939590929450565b600b5481565b6000828211151515612da257fe5b818303905092915050565b6000808284019050838110151515612dc157fe5b8091505092915050565b602060405190810160405280600081525090565b828054600181600116156101000203166002900490600052602060002090601f016020900481019282601f10612e2057805160ff1916838001178555612e4e565b82800160010185558215612e4e579182015b82811115612e4d578251825591602001919060010190612e32565b5b509050612e5b9190612f12565b5090565b815481835581811511612e8657818360005260206000209182019101612e859190612f12565b5b505050565b828054600181600116156101000203166002900490600052602060002090601f016020900481019282601f10612ec45780548555612f01565b82800160010185558215612f0157600052602060002091601f016020900482015b82811115612f00578254825591600101919060010190612ee5565b5b509050612f0e9190612f12565b5090565b612f3491905b80821115612f30576000816000905550600101612f18565b5090565b905600a165627a7a723058202d7322dcd4f1c9a24037d1172b43de17687ffca415cfed7249e49646395524f50029",
  "source": "pragma solidity ^0.4.0;\r\n\r\nimport \"./owned.sol\";\r\nimport \"./BasicToken.sol\";\r\n\r\n \r\ncontract Inventory is owned,BasicToken{\r\n     \r\n    \r\n     \r\n   address public customer;\r\n   uint256 public productCount=0;\r\n   uint256[] public p_id;\r\n   uint256[] public o_id;\r\n   uint256[] public pur_id;\r\n   //BasicToken bt;\r\n     \r\n    struct product{\r\n        uint pid;\r\n        string pname;\r\n        string pbrand;\r\n        uint pquantity;\r\n        uint pprice;\r\n       }\r\n     \r\n    \r\n       \r\n        struct productorder{\r\n             uint id2;\r\n             uint id;\r\n             address cid;\r\n             string name;\r\n             string brand;\r\n             uint quantity;\r\n             uint price;\r\n             uint tprice;\r\n            }\r\n       \r\n        \r\n        struct in_order{\r\n            uint ipid;\r\n            string ipname;\r\n            string brands;\r\n            uint iquantity;\r\n            uint iprice;\r\n            uint itprice;\r\n           }\r\n      \r\n                          \r\n    mapping(address=>address)public CUST;\r\n    mapping(uint=>product)public PROD;\r\n    mapping(uint=>productorder)public ORDER;\r\n    mapping(uint=>in_order)public PURCHASE;\r\n    \r\n    \r\n    function cust(address id)public returns(address){\r\n        CUST[id]=id;\r\n        return CUST[id];\r\n    }\r\n    \r\n         \r\n    function p_details(uint id,string name,string brand,uint quantity,uint price)public onlyOwner   {\r\n     \r\n        require(PROD[id].pid!=id);\r\n        PROD[id].pid = id;\r\n        PROD[id].pname = name;\r\n        PROD[id].pbrand = brand;\r\n        PROD[id].pquantity = quantity;\r\n        PROD[id].pprice = price;\r\n        productCount++;\r\n        p_id.push(id);\r\n        \r\n        \r\n\r\n    }  \r\n   \r\n   function getProductsCount() public view returns(uint256){\r\n       return p_id.length;\r\n   }\r\n\r\n   function getProductId(uint _id) public view returns(uint256)\r\n   {\r\n       return p_id[_id];\r\n   }\r\n\r\n    function order(uint id2,uint id,address id1,uint pquantity)public  {     //address _ca; bt=_ca;  bt.balances[]\r\n           require(id ==PURCHASE[id].ipid && pquantity <= PURCHASE[id].iquantity);\r\n           require(id1 == CUST[id1]);\r\n           ORDER[id2].id2 = id2;\r\n           ORDER[id2].cid = id1;\r\n           ORDER[id2].id=id;\r\n           ORDER[id2].name =PURCHASE[id].ipname ;\r\n           ORDER[id2].brand =  PURCHASE[id].brands;\r\n           ORDER[id2].quantity=pquantity;\r\n           ORDER[id2].price = pquantity *  PURCHASE[id].iprice; \r\n           ORDER[id2].tprice += ORDER[id2].price ;\r\n           PURCHASE[id].iquantity-=pquantity;\r\n           balances[msg.sender] -= ORDER[id2].tprice; \r\n           balances[owner] += ORDER[id2].tprice;\r\n           o_id.push(id2);\r\n           \r\n          \r\n    }\r\n\r\n    function getOrderCount()public view returns(uint256){\r\n        return o_id.length;\r\n    }\r\n     \r\n   \r\n    function purchase_order(uint id,string p_name,string brands,uint _quantity,uint price)public onlyOwner returns(uint,string,string,uint,uint) {\r\n       PURCHASE[id].ipid = id;\r\n       PURCHASE[id].ipname = p_name;\r\n       PURCHASE[id].brands =brands;\r\n       PURCHASE[id].iquantity = _quantity;\r\n       PURCHASE[id].iprice = price;\r\n       PURCHASE[id].itprice = _quantity * price;\r\n       balances[owner] -= PURCHASE[id].itprice;\r\n       pur_id.push(id);\r\n\r\n       return ( PURCHASE[id].ipid, PURCHASE[id].ipname,PURCHASE[id].brands, PURCHASE[id].iquantity,PURCHASE[id].iprice);\r\n       }\r\n       \r\n       function purchaseOrder()public view returns(uint256){\r\n            return pur_id.length;\r\n       }\r\n       //function addproducts(uint id,string name,string brandname,uint quantity)onlyOwner public{\r\n         //  require(quantity <=PURCHASE[id].iquantity);\r\n         //  require(keccak256(name) == keccak256(PROD[id].pname) && keccak256(brandname) == keccak256(PROD[id].pbrand) );\r\n               \r\n              // PROD[id].pquantity += quantity;\r\n              // PURCHASE[id].iquantity -= quantity;\r\n              // PROD[id].pprice=PURCHASE[id].iprice;\r\n         //}\r\n         \r\n       function viewproduct(uint id)public constant returns(uint,string,string,uint,uint){\r\n           \r\n           return(PROD[id].pid,PROD[id].pname,PROD[id].pbrand,  PROD[id].pquantity,PROD[id].pprice);\r\n       } \r\n       \r\n       function vieworder(uint id2)public constant returns(uint,address,string,string,uint,uint,uint){\r\n           \r\n           return (ORDER[id2].id2,ORDER[id2].cid, ORDER[id2].name, ORDER[id2].brand,ORDER[id2].quantity,ORDER[id2].price,ORDER[id2].tprice);\r\n       }\r\n       \r\n       \r\n       function viewpurchase(uint id)public constant returns(uint,string,string,uint,uint){\r\n           \r\n           return( PURCHASE[id].ipid, PURCHASE[id].ipname,PURCHASE[id].brands, PURCHASE[id].iquantity,PURCHASE[id].iprice);\r\n           \r\n       }   \r\n    \r\n}\r\n   \r\n     \r\n",
  "sourcePath": "D:\\des\\Inventory\\contracts\\Inventory.sol",
  "compiler": {
    "name": "solc",
    "version": "0.4.21+commit.dfe3193c.Emscripten.clang"
  },
  "schemaVersion": "2.0.0",
  "updatedAt": "2018-04-12T04:58:21.735Z"
}